:100000000C9434000C943E000C943E000C943E0082
:100010000C943E000C943E000C943E000C943E0068
:100020000C943E000C943E000C943E000C943E0058
:100030000C943E000C943E000C943E000C943E0048
:100040000C943E000C943E000C943E000C943E0038
:100050000C943E000C943E000C943E000C943E0028
:100060000C943E000C943E0011241FBECFEFD4E050
:10007000DEBFCDBF0E944E000C9464000C940000C3
:100080008091C600882339F08091C60090E0C09727
:100090001092C600089580E090E008958091C0001D
:1000A00082608093C00080E18093C10086E08093ED
:1000B000C2001092C5008CE08093C4008FEF84B919
:0C00C0000E94400085B9FCCFF894FFCFEF
:00000001FF
