:100000000C9434000C943E000C943E000C943E0082
:100010000C943E000C943E000C943E000C943E0068
:100020000C943E000C943E000C943E000C943E0058
:100030000C943E000C943E000C943E000C943E0048
:100040000C943E000C943E000C943E000C943E0038
:100050000C943E000C943E000C943E000C943E0028
:100060000C943E000C943E0011241FBECFEFD4E050
:10007000DEBFCDBF0E9477000C94D2000C9400002C
:100080009091C00095FFFCCF8093C60008951F9308
:10009000CF93DF93EC0110E0FE01E10FF11D8081B1
:1000A000882321F00E9440001F5FF6CFDF91CF919F
:1000B0001F910895CF93DF93CDB7DEB728970FB682
:1000C000F894DEBF0FBECDBF4AE0BE016F5F7F4F29
:1000D0000E949D00CE0101960E94470028960FB60F
:1000E000F894DEBF0FBECDBFDF91CF910895809110
:1000F000C00082608093C00088E08093C10086E0E9
:100100008093C2001092C5008CE08093C400C0E0D0
:10011000D0E0CE010E945A0080E20E9440002FE30E
:100120008DE093E0215080409040E1F700C0000056
:100130002196C636D1056CF3EACFBB274A3031F49D
:10014000992322F4BDE2909581959F4F0C94A900CC
:10015000BB27FB015527AA27880F991FAA1FA417A1
:1001600010F0A41B83955051B9F7A05DAA3308F095
:10017000A95DA193009779F7B111B1931192CB01C9
:100180000C94C200DC01FC01672F71917723E1F729
:10019000329704C07C916D9370836291AE17BF0754
:0801A000C8F30895F894FFCFA5
:00000001FF
