:100000000C9434000C943E000C943E000C943E0082
:100010000C943E000C943E000C943E000C943E0068
:100020000C943E000C943E000C943E000C943E0058
:100030000C943E000C943E000C943E000C943E0048
:100040000C943E000C943E000C943E000C943E0038
:100050000C943E000C943E000C943E000C943E0028
:100060000C943E000C943E0011241FBECFEFD4E050
:10007000DEBFCDBF0E9440000C9473000C940000C2
:100080008091C00082608093C00088E08093C100AE
:1000900086E08093C2001092C5008CE08093C4007B
:1000A00080E39091C00095FFFCCF8093C600E3E20F
:1000B000F4EF3197F1F700C00000E3E2F4EF31977D
:1000C000F1F700C00000E3E2F4EF3197F1F700C070
:1000D0000000E3E2F4EF3197F1F700C000008F5F1A
:0A00E0008A33F4F6DECFF894FFCF68
:00000001FF
