:100000000C9434000C9449000C9449000C94490061
:100010000C9449000C9449000C9449000C9449003C
:100020000C9449000C9449000C9449000C9449002C
:100030000C9449000C9449000C9449000C9449001C
:100040000C9449000C9449000C9449000C9449000C
:100050000C9449000C9449000C9449000C944900FC
:100060000C9449000C94490011241FBECFEFD4E03A
:10007000DEBFCDBF11E0A0E0B1E0E2EBF3E002C0F3
:1000800005900D92A230B107D9F70E943A010C9465
:10009000D7010C94000080E18093800088E1809378
:1000A00081001092870010928600109288001092B2
:1000B0008A00089520E030E02817390749F0E3ED81
:1000C000F0E33197F1F700C000002F5F3F4FF4CF0E
:1000D00008950F931F93CF93DF938A0110928500A9
:1000E00010928400C1E8D0E02881216028830E941A
:1000F00082019B0140E050E060E472E48FE090E018
:100100000E9441013093870020938600C8010E941D
:100110005A0088818E7F8883DF91CF911F910F9144
:10012000089545E050E060E070E084EC93E40E94C4
:10013000690081E090E00E945A0045E050E06BE7E2
:1001400074ED82E993E40E94690081E090E00E94EE
:100150005A0045E050E06BE774ED82E993E40E94B9
:10016000690081E090E00E945A0045E050E061E7BC
:100170007DE98EEA93E40E94690081E090E00E94AC
:100180005A0045E050E060E070E084EC93E40E94A7
:10019000690081E090E00E945A0045E050E06BE782
:1001A00074ED82E993E40E94690081E090E00E948E
:1001B0005A0045E050E06BE774ED82E993E40E9459
:1001C000690081E090E00E945A0045E050E061E75C
:1001D0007DE98EEA93E40E94690081E090E00E944C
:1001E0005A0045E050E06BE774ED82E993E40E9429
:1001F000690081E090E00E945A0045E050E06BE722
:1002000074ED82E993E40E94690081E090E00E942D
:100210005A0045E050E061E77DE98EEA93E40E94F0
:10022000690081E090E00E945A0045E050E061E7FB
:100230007DE98EEA93E40E94690081E090E00E94EB
:100240005A0045E050E060E070E084EC93E40E94E6
:10025000690081E090E00E945A0045E050E060E0D3
:1002600070E084EC93E40E94690081E090E00E94D9
:100270005A0057CF8FEF84B90E944B0078940E94A8
:100280009100052E97FB1EF400940E94580157FD23
:1002900007D00E94600107FC03D04EF40C94580173
:1002A00050954095309521953F4F4F4F5F4F0895A2
:1002B00090958095709561957F4F8F4F9F4F0895D2
:1002C000A1E21A2EAA1BBB1BFD010DC0AA1FBB1F5A
:1002D000EE1FFF1FA217B307E407F50720F0A21BCC
:1002E000B30BE40BF50B661F771F881F991F1A9439
:1002F00069F760957095809590959B01AC01BD0163
:10030000CF01089533D088F09F5790F0B92F9927E7
:10031000B751A0F0D1F0660F771F881F991F1AF010
:10032000BA95C9F712C0B13081F03AD0B1E0089562
:1003300037C0672F782F8827B85F39F0B93FCCF3E3
:10034000869577956795B395D9F73EF49095809506
:10035000709561957F4F8F4F9F4F089557FD90582F
:10036000440F551F59F05F3F71F04795880F97FB79
:10037000991F61F09F3F79F0879508951216130633
:100380001406551FF2CF4695F1DF08C01616170662
:100390001806991FF1CF8695710561050894089597
:1003A000E894BB2766277727CB0197F90895F8943F
:0203B000FFCF7D
:0203B200320017
:00000001FF
