:100000000C9434000C943E000C943E000C943E0082
:100010000C943E000C943E000C943E000C943E0068
:100020000C943E000C943E000C943E000C943E0058
:100030000C943E000C9440000C943E000C943E0046
:100040000C943E000C943E000C943E000C943E0038
:100050000C943E000C943E000C943E000C943E0028
:100060000C943E000C943E0011241FBECFEFD4E050
:10007000DEBFCDBF0E944B000C9459000C940000D1
:100080001F920F920FB60F921124189A0F900FBE65
:100090000F901F9018958FEF84B97894809181000C
:1000A00082608093810080916F00816080936F00F7
:0600B000FFCFF894FFCF22
:00000001FF
