:100000000C9434000C943E000C943E000C943E0082
:100010000C943E000C943E000C943E000C943E0068
:100020000C943E000C943E000C943E000C943E0058
:100030000C943E000C943E000C943E000C943E0048
:100040000C943E000C943E000C943E000C943E0038
:100050000C943E000C943E000C943E000C943E0028
:100060000C943E000C943E0011241FBECFEFD4E050
:10007000DEBFCDBF0E9459000C945F000C940000BD
:1000800080E180938000E1E8F0E088E180831092D5
:1000900085001092840080818160808380E593ECEC
:1000A00090938700809386001092880010928A00B7
:1000B00008958FEF84B978940E944000FFCFF894A0
:0200C000FFCF70
:00000001FF
