:100000000C9434000C9449000C9449000C94490061
:100010000C9449000C9449000C9449000C9449003C
:100020000C9449000C9449000C9449000C9449002C
:100030000C9449000C946C000C9449000C944900F9
:100040000C9449000C9449000C945C000C944900F9
:100050000C9449000C9449000C9449000C944900FC
:100060000C9449000C94490011241FBECFEFD4E03A
:10007000DEBFCDBF11E0A0E0B1E0EAE5F2E002C0F2
:1000800005900D92A635B107D9F70E94C1000C94D6
:100090002B010C940000E0ECF0E080818260808312
:1000A00088E98093C10086E08093C2001092C50069
:1000B0008CE08093C40008951F920F920FB60F92A8
:1000C00011248F938091C600809300018F910F902F
:1000D0000FBE0F901F9018951F920F920FB60F92A0
:1000E00011248F93EF93FF9315B8E1E8F0E080813E
:1000F0008083EFE6F0E080818E7F8083FF91EF9137
:100100008F910F900FBE0F901F901895E1E8F0E0CF
:10011000808184608083EFE6F0E08081816080836D
:1001200008959091C00095FFFCCF8093C60008957C
:10013000CF93DF93EC018991882319F00E949100FD
:10014000FACFDF91CF910895CF93DF93CDB7DEB78C
:1001500028970FB6F894DEBF0FBECDBF4AE0BE01B0
:100160006F5F7F4F0E94F600CE0101960E949800BB
:1001700028960FB6F894DEBF0FBECDBFDF91CF91AA
:1001800008958FEF84B90E944B00789481E091E04C
:100190000E9498008CE091E00E94980081E391E039
:1001A0000E949800DD24D39482E3F82E0BE617E634
:1001B00092E0E92EC5EBD3EB80910001803361F032
:1001C0008133D1F7E5B8F09200010E948600D09308
:1001D0008500C0938400F0CFD5B8F09200010E9452
:1001E00086001093850000938400E6CFBB274A3039
:1001F00031F4992322F4BDE2909581959F4F0C94A0
:100200000201BB27FB015527AA27880F991FAA1FA8
:10021000A41710F0A41B83955051B9F7A05DAA3321
:1002200008F0A95DA193009779F7B111B1931192EC
:10023000CB010C941B01DC01FC01672F719177232A
:10024000E1F7329704C07C916D9370836291AE1791
:0A025000BF07C8F30895F894FFCF2C
:10025A0032566F657220696E3A0A0D00302C204CB6
:10026A004544206F7020423020676161742031302C
:10027A00207365636F6E64656E2061616E2E0A0D70
:10028A0000312C204C4544206F7020423120676198
:10029A0061742035207365636F6E64656E206161D9
:0602AA006E2E0A0D00009B
:00000001FF
