:100000000C9434000C9449000C9449000C94490061
:100010000C9449000C9449000C9449000C9449003C
:100020000C9449000C9449000C9449000C9449002C
:100030000C9449000C946C000C9449000C944900F9
:100040000C9449000C9449000C945C000C944900F9
:100050000C9449000C9449000C9449000C944900FC
:100060000C9449000C94490011241FBECFEFD4E03A
:10007000DEBFCDBF11E0A0E0B1E0E0E4F2E002C0FD
:1000800005900D92A635B107D9F70E94B7000C94E0
:100090001E010C940000E0ECF0E08081826080831F
:1000A00088E98093C10086E08093C2001092C50069
:1000B0008CE08093C40008951F920F920FB60F92A8
:1000C00011248F938091C600809300018F910F902F
:1000D0000FBE0F901F9018951F920F920FB60F92A0
:1000E0001124289A0F900FBE0F901F90189520E0B2
:1000F00030E090E0281739074CF4E7EAF1E6319751
:10010000F1F700C000002F5F3F4FF4CF08959091AA
:10011000C00095FFFCCF8093C6000895CF93DF9376
:10012000EC018991882319F00E948700FACFDF91B2
:10013000CF910895CF93DF93CDB7DEB728970FB651
:10014000F894DEBF0FBECDBF4AE0BE016F5F7F4FA8
:100150000E94E900CE0101960E948E0028960FB6FB
:10016000F894DEBF0FBECDBFDF91CF9108958FEF22
:1001700084B90E944B00789481E091E00E948E0047
:100180008CE091E00E948E0081E391E00E948E005D
:100190008091810082608093810080916E008160F7
:1001A00080936E00D1E0C2E312E0809100018033C1
:1001B00039F0813361F415B9C093000182E304C0C2
:1001C000D5B9C093000184E60E947700EECF15B840
:1001D000ECCFBB274A3031F4992322F4BDE290954D
:1001E00081959F4F0C94F500BB27FB015527AA274B
:1001F000880F991FAA1FA41710F0A41B83955051B4
:10020000B9F7A05DAA3308F0A95DA193009779F72B
:10021000B111B1931192CB010C940E01DC01FC01E0
:10022000672F71917723E1F7329704C07C916D932A
:1002300070836291AE17BF07C8F30895F894FFCF9B
:1002400032566F657220696E3A0A0D00302C204CD0
:100250004544206F70204230206761617420313046
:10026000207365636F6E64656E2061616E2E0A0D8A
:1002700000312C204C4544206F70204231206761B2
:1002800061742035207365636F6E64656E206161F3
:060290006E2E0A0D0000B5
:00000001FF
