:100000000C9434000C943E000C943E000C943E0082
:100010000C943E000C943E000C943E000C943E0068
:100020000C943E000C943E000C943E000C943E0058
:100030000C943E000C943E000C943E000C943E0048
:100040000C943E000C943E000C943E000C943E0038
:100050000C943E000C943E000C943E000C943E0028
:100060000C943E000C943E0011241FBECFEFD4E050
:10007000DEBFCDBF0E9440000C9482000C940000B3
:1000800082E084B980917C00806480937C008091C0
:100090007A00846080937A0080917A0080688093EF
:1000A0007A0080917C008E7F80937C0080917A0022
:1000B000806580937A0080917A0084FFFCCF8091E4
:1000C00078009091790020917C00216020937C0041
:1000D00020917A00206520937A0020917A0024FFF5
:1000E000FCCF20917800309179008217930710F4AB
:1000F000299A01C0299883E294EF0197F1F700C093
:080100000000CFCFF894FFCFFF
:00000001FF
