:100000000C9434000C943E000C943E000C943E0082
:100010000C943E000C943E000C943E000C943E0068
:100020000C943E000C943E000C943E000C943E0058
:100030000C943E000C943E000C943E000C943E0048
:100040000C943E000C943E000C943E000C943E0038
:100050000C943E000C943E000C943E000C943E0028
:100060000C943E000C943E0011241FBECFEFD4E050
:10007000DEBFCDBF0E944C000C9426010C94000002
:1000800085B96BB92FE986E891E021508040904016
:10009000E1F700C0000008958FEF84B98AB991E0BC
:1000A00082E024E038E040E150E260E470E815B816
:1000B0009BB9AFE9E6E8F1E0A150E040F040E1F79C
:1000C00000C0000015B88BB9AFE9E6E8F1E0A15037
:1000D000E040F040E1F700C0000095B91BB8AFE97F
:1000E000E6E8F1E0A150E040F040E1F700C0000098
:1000F00085B91BB8AFE9E6E8F1E0A150E040F04077
:10010000E1F700C0000025B91BB8AFE9E6E8F1E06F
:10011000A150E040F040E1F700C0000035B91BB845
:10012000AFE9E6E8F1E0A150E040F040E1F700C0BF
:10013000000045B91BB8AFE9E6E8F1E0A150E040A6
:10014000F040E1F700C0000055B91BB8AFE9E6E8A0
:10015000F1E0A150E040F040E1F700C0000065B9D7
:100160001BB8AFE9E6E8F1E0A150E040F040E1F76C
:1001700000C0000075B91BB8AFE9E6E8F1E0A15096
:10018000E040F040E1F700C0000065B91BB8AFE9FE
:10019000E6E8F1E0A150E040F040E1F700C00000E7
:1001A00055B91BB8AFE9E6E8F1E0A150E040F040F6
:1001B000E1F700C0000045B91BB8AFE9E6E8F1E09F
:1001C000A150E040F040E1F700C0000035B91BB895
:1001D000AFE9E6E8F1E0A150E040F040E1F700C00F
:1001E000000025B91BB8AFE9E6E8F1E0A150E04016
:1001F000F040E1F700C0000085B91BB8AFE9E6E8C0
:10020000F1E0A150E040F040E1F700C0000095B9F6
:100210001BB8AFE9E6E8F1E0A150E040F040E1F7BB
:1002200000C0000015B88BB9AFE9E6E8F1E0A150D5
:10023000E040F040E1F700C0000015B81BB8E3EC67
:10024000F9E03197F1F700C0000031CFF894FFCF0B
:00000001FF
