:100000000C9434000C9446000C9446000C9446006A
:100010000C9446000C9446000C9446000C94460048
:100020000C9446000C9446000C9446000C94460038
:100030000C9446000C9446000C9446000C94460028
:100040000C9448000C9446000C9446000C94460016
:100050000C9446000C9446000C9446000C94460008
:100060000C9446000C94460011241FBECFEFD4E040
:10007000DEBFCDBF21E0A0E0B1E001C01D92A23003
:10008000B207E1F70E9469000C9477000C9400001D
:100090001F920F920FB60F9211248F939F9380910E
:1000A000000190910101019690930101809300015C
:1000B000049734F081E083B910920101109200019D
:1000C0008BE086BD9F918F910F900FBE0F901F9078
:1000D00018958FEF84B9789485B5856085BD80913A
:1000E0006E00816080936E008BE086BDFFCFF89438
:0200F000FFCF40
:00000001FF
