:100000000C9434000C9446000C9446000C9446006A
:100010000C9446000C9446000C9446000C94460048
:100020000C9446000C9446000C9446000C94460038
:100030000C9446000C9446000C9446000C94460028
:100040000C9456000C9446000C9446000C94460008
:100050000C9446000C9446000C9446000C94460008
:100060000C9446000C94460011241FBECFEFD4E040
:10007000DEBFCDBF11E0A0E0B1E001C01D92A43011
:10008000B107E1F70E9493000C94A1000C940000CA
:10009000E0E8F0E08081836C8083E1E8F0E080813B
:1000A0008260808310928200219A08951F920F929D
:1000B0000FB60F9211242F938F939F93809102017B
:1000C000909103010196909303018093020104979C
:1000D000ACF0809100019091010190938900809390
:1000E00088008A599F4F90930101809300018050AE
:1000F000944020F010920101109200018BE086BD27
:100100009F918F912F910F900FBE0F901F90189578
:1001100085B5856085BDEEE6F0E0808181608083F5
:100120008BE086BD089578940E94480085B585606F
:1001300085BD80916E00816080936E008BE086BDEE
:06014000FFCFF894FFCF91
:00000001FF
