:100000000C9434000C9451000C9451000C94510049
:100010000C9451000C9451000C9451000C9451001C
:100020000C9451000C9451000C9451000C9451000C
:100030000C9451000C9451000C9451000C945100FC
:100040000C9453000C9451000C9451000C945100EA
:100050000C9451000C9451000C9451000C945100DC
:100060000C9451000C94510011241FBECFEFD4E02A
:10007000DEBFCDBF11E0A0E0B1E0E0EBF1E002C0F7
:1000800005900D92A230B107D9F711E0A2E0B1E0DE
:1000900001C01D92A430B107E1F70E94C8000C9482
:1000A000D6000C9400001F920F920FB60F921124ED
:1000B0008F939F93809102019091030101969093F9
:1000C0000301809302010497BCF185B192E0892776
:1000D00085B980910001909101018034910531F43E
:1000E00080E690E0909301018093000180910001EF
:1000F000909101018036910531F480E890E0909371
:1001000001018093000180910001909101018038EC
:10011000910531F480E490E0909301018093000117
:10012000809100019091010190938B0080938A004F
:1001300010920301109202018BE086BD9F918F9176
:100140000F900FBE0F901F901895E0E8F0E08081AF
:1001500083628083E1E8F0E0808182608083109296
:10016000820084B1866084B9809100019091010180
:1001700090938B0080938A00089585B5856085BD36
:10018000EEE6F0E08081816080838BE086BD08959B
:1001900078940E94A50085B5856085BD80916E002C
:1001A000816080936E008BE086BDFFCFF894FFCF17
:0201B0006000ED
:00000001FF
