:100000000C9434000C943E000C943E000C943E0082
:100010000C943E000C943E000C943E000C943E0068
:100020000C943E000C943E000C943E000C943E0058
:100030000C943E000C943E000C943E000C943E0048
:100040000C943E000C943E000C943E000C943E0038
:100050000C943E000C943E000C943E000C943E0028
:100060000C943E000C943E0011241FBECFEFD4E050
:10007000DEBFCDBF0E9440000C9459000C940000DC
:100080008EE184B9529881E090E04A9B0EC088309E
:1000900091051CF4880F991F02C081E090E0E3E213
:1000A000F4EF3197F1F700C00000282F220F25B997
:0600B000ECCFF894FFCF35
:00000001FF
